:100000000C942A000C9447000C9447000C94470071
:100010000C9447000C9447000C9447000C94470044
:100020000C9447000C9447000C9421070C94EE06A6
:100030000C9447000C9447000C9447000C94470024
:100040000C9447000C9447000C9447000C94470014
:100050000C94191211241FBECFE5D8E0DEBFCDBF2E
:1000600010E0A8E6B0E001C01D92AE36B107E1F79E
:1000700010E0A0E6B0E0E6E3F6E202C005900D92E3
:10008000A836B107D9F70E944C120C9419130C949E
:100090000000EF92FF920F931F937B018C0120E0F1
:1000A00030E040E05FE40E94490388238CF0C801FF
:1000B000B70120E030E040E05FE40E94C1010E940F
:1000C000A9039B01AC01205030404040504806C07D
:1000D000C801B7010E94A9039B01AC01B901CA0183
:1000E0001F910F91FF90EF900895A0E0B0E0EBE733
:1000F000F0E00C94E212DC012B01FA019C919230A9
:1001000008F439C1EB018881823008F433C194309E
:1001100069F4843009F02FC111969C91119789815F
:10012000981709F428C1A0E6B0E025C1843009F48D
:1001300021C18230A9F4923009F01DC19A01AD01AC
:1001400088E0EA010990AE01E90109929E0181501F
:10015000C1F7E201898111969C918923818308C1AD
:10016000923009F407C112962D903C901397EB0141
:100170008A819B811496AD90BD90CD90DC901797AD
:10018000EC80FD800E811F819101281B390BB90184
:1001900037FF04C066277727621B730B6032710537
:1001A0000CF061C0121613066CF537014801062EDB
:1001B00004C096948794779467940A94D2F721E0C8
:1001C00030E040E050E004C0220F331F441F551FB1
:1001D0006A95D2F721503040404050402E213F21B7
:1001E00040235123211531054105510521F021E01E
:1001F00030E040E050E079018A01E628F72808293C
:1002000019293CC0232BD1F1260E371E350146019A
:10021000062E04C096948794779467940A94D2F734
:1002200021E030E040E050E004C0220F331F441FC3
:10023000551F6A95D2F721503040404050402A2146
:100240003B214C215D21211531054105510521F04E
:1002500021E030E040E050E059016A01A628B728CB
:10026000C828D9280BC0821593052CF01C01AA249C
:10027000BB24650103C0EE24FF24870111969C91E5
:10028000D20111968C91981709F445C0992339F041
:10029000A80197012A193B094C095D0906C0A6016E
:1002A00095012E193F09400B510B57FD08C01182D3
:1002B0003382228224833583468357831DC081E0A5
:1002C00081833382228288279927DC01821B930B4A
:1002D000A40BB50B84839583A683B7830DC0220F2F
:1002E000331F441F551F24833583468357838281E0
:1002F000938101979383828324813581468157813D
:10030000DA01C9010197A109B1098F5F9F4FAF4F72
:10031000BF4328F30BC0918333822282EA0CFB1C7B
:100320000C1D1D1DE482F5820683178383E0808304
:10033000248135814681578157FF1AC0C901AA27F8
:1003400097FDA095BA2F81709070A070B0705695EF
:10035000479537952795822B932BA42BB52B848318
:100360009583A683B7838281938101969383828349
:10037000DF0101C0D201CD01CDB7DEB7E2E10C94BF
:10038000FE12A0E2B0E0E7ECF1E00C94EE1269831B
:100390007A838B839C832D833E834F835887E9E048
:1003A000EE2EF12CEC0EFD1ECE010196B7010E943F
:1003B000D2048E010F5E1F4FCE010596B8010E9438
:1003C000D2048A8991E089278A8BC701B801AE01DE
:1003D000475E5F4F0E9475000E94FD03A096E6E015
:1003E0000C940A13A0E2B0E0E8EFF1E00C94EE12F6
:1003F00069837A838B839C832D833E834F835887C5
:10040000F9E0EF2EF12CEC0EFD1ECE010196B701A6
:100410000E94D2048E010F5E1F4FCE010596B801D7
:100420000E94D204C701B801AE01475E5F4F0E942F
:1004300075000E94FD03A096E6E00C940A13A0E26A
:10044000B0E0E5E2F2E00C94E21269837A838B83F8
:100450009C832D833E834F835887CE010196BE0136
:10046000675F7F4F0E94D204CE010596BE016F5E8A
:100470007F4F0E94D2049985923088F0898982301A
:10048000C8F0943019F4823051F404C0843029F457
:10049000923081F480E690E0C6C0923049F420E0CA
:1004A0009A858A89981321E02A87CE010996BBC0D4
:1004B000823049F420E09A858A89981321E02A8BBA
:1004C000CE014196B0C02D843E844F8458886D88FB
:1004D0007E888F88988CEE24FF248701AA24BB2471
:1004E000650140E050E060E070E0E0E0F0E0C10174
:1004F00081709070892BE9F0E60CF71C081D191D1E
:100500009A01AB012A0D3B1D4C1D5D1D80E090E062
:10051000A0E0B0E0E614F7040805190520F481E036
:1005200090E0A0E0B0E0BA01A901480F591F6A1F8E
:100530007B1FAA0CBB1CCC1CDD1C97FE08C081E0F5
:1005400090E0A0E0B0E0A82AB92ACA2ADB2A3196B6
:10055000E032F10549F0660C771C881C991C569412
:10056000479437942794C3CFFA85EA892B893C892D
:100570008B859C85280F391F2E5F3F4F17C0CA01FE
:1005800081709070892B61F016950795F794E79428
:1005900080E090E0A0E0B0E8E82AF92A0A2B1B2BC3
:1005A00076956795579547952F5F3F4F77FDE7CF36
:1005B0000CC0440F551F661F771F17FD4160EE0CDE
:1005C000FF1C001F111F21503040403090E05907A0
:1005D00090E0690790E4790760F32B8F3C8FDB0193
:1005E000CA018F779070A070B07080349105A1051A
:1005F000B10561F447FD0AC0E114F10401051105DC
:1006000029F0405C5F4F6F4F7F4F40781A8EFE1786
:1006100011F081E08A8F4D8F5E8F6F8F78A383E01A
:10062000898FCE0149960E94FD03A096E2E10C94C9
:10063000FE12A8E1B0E0EFE1F3E00C94EE12698362
:100640007A838B839C832D833E834F83588789E0F5
:10065000E82EF12CEC0EFD1ECE010196B7010E9492
:10066000D2048E010F5E1F4FCE010596B8010E9485
:10067000D2048985823040F08989823028F0C70110
:10068000B8010E944A0501C08FEF6896E6E00C941D
:100690000A13A8E1B0E0EFE4F3E00C94EE126983F2
:1006A0007A838B839C832D833E834F83588789E095
:1006B000E82EF12CEC0EFD1ECE010196B7010E9432
:1006C000D2048E010F5E1F4FCE010596B8010E9425
:1006D000D2048985823040F08989823028F0C701B0
:1006E000B8010E944A0501C08FEF6896E6E00C94BD
:1006F0000A13A8E1B0E0EFE7F3E00C94EE1269838F
:100700007A838B839C832D833E834F83588789E034
:10071000E82EF12CEC0EFD1ECE010196B7010E94D1
:10072000D2048E010F5E1F4FCE010596B8010E94C4
:10073000D2048985823040F08989823028F0C7014F
:10074000B8010E944A0501C081E06896E6E00C9479
:100750000A13ACE0B0E0EFEAF3E00C94F212698324
:100760007A838B839C83CE010196BE016B5F7F4FA2
:100770000E94D2048D81823061F1823050F1843048
:1007800021F48E81882351F12EC02F81388537FDC9
:1007900020C06E812F3131051CF06623F9F023C093
:1007A0008EE190E0821B930B29853A854B855C8511
:1007B00004C056954795379527958A95D2F76623B5
:1007C000B1F050954095309521953F4F4F4F5F4F79
:1007D0000EC020E030E040E050E009C02FEF3FEFD6
:1007E0004FEF5FE704C020E030E040E050E8B9019F
:1007F000CA012C96E2E00C940E13DF92EF92FF9266
:100800000F931F93FC01E480F58006811781D1804E
:100810008081823048F480E090E0A0E1B0E0E82AF6
:10082000F92A0A2B1B2BA5C0843009F49FC0823003
:1008300021F4EE24FF24870105C0E114F104010531
:10084000110519F4E0E0F0E096C0628173819FEF3A
:10085000623879070CF05BC022E83FEF261B370BAC
:100860002A3131052CF020E030E040E050E02AC091
:10087000B801A701022E04C0769567955795479554
:100880000A94D2F781E090E0A0E0B0E004C0880FC5
:10089000991FAA1FBB1F2A95D2F70197A109B10979
:1008A0008E219F21A023B1230097A105B10521F03E
:1008B00081E090E0A0E0B0E09A01AB01282B392B59
:1008C0004A2B5B2BDA01C9018F779070A070B07052
:1008D00080349105A105B10539F427FF09C0205CDA
:1008E0003F4F4F4F5F4F04C0215C3F4F4F4F5F4F13
:1008F000E0E0F0E02030A0E03A07A0E04A07A0E402
:100900005A0710F0E1E0F0E079018A0127C0603871
:10091000710564F5FB01E158FF4FD801C7018F77DE
:100920009070A070B07080349105A105B10539F4C4
:10093000E7FE0DC080E490E0A0E0B0E004C08FE3EB
:1009400090E0A0E0B0E0E80EF91E0A1F1B1F17FFA1
:1009500005C016950795F794E794319687E01695AC
:100960000795F794E7948A95D1F705C0EE24FF2404
:100970008701EFEFF0E06E2F679566276795902F60
:100980009F77D794DD24D7948E2F8695492F462BB9
:10099000582F5D29B701CA011F910F91FF90EF9069
:1009A000DF900895FC01DB01408151812281622F9B
:1009B0006F7770E0221F2227221F9381892F880FD3
:1009C000822B282F30E0991F9927991F11969C930D
:1009D000119721153105A9F54115510561057105DD
:1009E00011F482E037C082E89FEF13969C938E93B8
:1009F00012979A01AB0167E0220F331F441F551F66
:100A00006A95D1F783E08C930DC0220F331F441FEA
:100A1000551F12968D919C911397019713969C9355
:100A20008E931297203080E0380780E0480780E4FA
:100A3000580758F314962D933D934D935C93179755
:100A400008952F3F310579F4411551056105710570
:100A500019F484E08C93089564FF03C081E08C93C3
:100A600012C01C9210C02F57304013963C932E9307
:100A7000129783E08C9387E0440F551F661F771F02
:100A80008A95D1F7706414964D935D936D937C9322
:100A9000179708951F93DC01FB019C91923008F495
:100AA00047C08081823008F443C0943051F41196DD
:100AB0001C91843099F58181682F70E0611B710968
:100AC0003FC0843021F0923031F48230B9F181811D
:100AD000882389F12DC011961C9111978230F1F075
:100AE00081811817D9F412962D913C911397828128
:100AF00093818217930794F028173907BCF0149656
:100B00008D919D910D90BC91A02D248135814681C0
:100B10005781281739074A075B0718F4112341F05A
:100B20000AC082179307A407B50740F4112319F0F0
:100B300061E070E005C06FEF7FEF02C060E070E041
:100B4000CB011F910895DF93CF93CDB7DEB7A0E41B
:100B5000B0E0E0E4F0E080818F7B8C93ABE2B0E02A
:100B6000EBE2F0E080818D7F8C93E9E2F0E083E3BB
:100B70008083A0E4B0E0E0E4F0E080818F7E8C939D
:100B8000A0E4B0E0E0E4F0E080818F7D8C93A0E40D
:100B9000B0E0E0E4F0E08081877F8C93AAE2B0E0EF
:100BA000EAE2F0E080818B7F8C93A0E4B0E0E0E4A7
:100BB000F0E0808184608C93A0E4B0E0E0E4F0E0B9
:100BC000808182608C93AAE2B0E0EAE2F0E080816A
:100BD00080618C93AAE2B0E0EAE2F0E08081886074
:100BE0008C93CF91DF910895DF93CF930F92CDB780
:100BF000DEB78983EBE2F0E080818295869587708D
:100C0000882F90E0817090700097A1F3ECE2F0E003
:100C1000898180830F90CF91DF910895DF93CF93E7
:100C2000CDB7DEB7EBE2F0E080818823DCF7ECE2C1
:100C3000F0E08081CF91DF910895DF93CF93CDB71E
:100C4000DEB7A3E5B0E0E3E5F0E080818F7B8C9335
:100C5000A3E5B0E0E3E5F0E08081877F8C93A3E536
:100C6000B0E0E3E5F0E08081887F8C93A3E5B0E01D
:100C7000E3E5F0E0808183608C93A9E5B0E0E9E5ED
:100C8000F0E080818E7F8C93A9E5B0E0E9E5F0E0AB
:100C900080818D7F8C93A8E5B0E0E8E5F0E080816D
:100CA00081608C93A8E5B0E0E8E5F0E080818260A7
:100CB0008C93E2E5F0E01082ECE5F0E01082CF9159
:100CC000DF910895DF93CF93CDB7DEB7A9E5B0E00C
:100CD000E9E5F0E0808181608C93CF91DF91089508
:100CE000DF93CF93CDB7DEB7A9E5B0E0E9E5F0E05B
:100CF00080818E7F8C93CF91DF910895DF93CF9386
:100D00000F92CDB7DEB78983E2E5F0E08981808379
:100D10000F90CF91DF910895DF93CF93CDB7DEB7DA
:100D2000E2E5F0E08081CF91DF910895DF93CF93EA
:100D3000CDB7DEB7A9E5B0E0E9E5F0E080818260FB
:100D40008C93CF91DF910895DF93CF93CDB7DEB72A
:100D5000A9E5B0E0E9E5F0E080818D7F8C93CF914B
:100D6000DF910895DF93CF930F92CDB7DEB78983DC
:100D7000ECE5F0E0898180830F90CF91DF910895B9
:100D8000DF93CF93CDB7DEB7ECE5F0E08081CF9174
:100D9000DF910895DF93CF9300D0CDB7DEB79A836C
:100DA000898389819A8190936900809368000F906C
:100DB0000F90CF91DF910895DF93CF9300D0CDB7FF
:100DC000DEB79A83898389819A8190936B0080939F
:100DD0006A000F900F90CF91DF9108951F920F92AC
:100DE0000FB60F9211242F933F934F935F936F93FE
:100DF0007F938F939F93AF93BF93EF93FF93DF9373
:100E0000CF93CDB7DEB780916800909169000097CD
:100E100029F0E0916800F09169000995CF91DF9188
:100E2000FF91EF91BF91AF919F918F917F916F91C2
:100E30005F914F913F912F910F900FBE0F901F9098
:100E400018951F920F920FB60F9211242F933F9374
:100E50004F935F936F937F938F939F93AF93BF93C2
:100E6000EF93FF93DF93CF93CDB7DEB780916A0006
:100E700090916B00009729F0E0916A00F0916B006F
:100E80000995CF91DF91FF91EF91BF91AF919F9124
:100E90008F917F916F915F914F913F912F910F9023
:100EA0000FBE0F901F9018950F931F93DF93CF9352
:100EB000CDB7DEB7C654D0400FB6F894DEBF0FBE34
:100EC000CDBFFE01ED5BFF4F80E090E0A0EFB1E40D
:100ED00080839183A283B3838E01015C1F4FFE0147
:100EE000ED5BFF4F608171818281938120E030E072
:100EF0004AEF54E40E941F02DC01CB01F801808319
:100F00009183A283B383FE01FF9660817181828108
:100F1000938120E030E040E85FE30E94790388237A
:100F20002CF481E090E09EAF8DAF46C0FE01FF96AD
:100F3000608171818281938120E03FEF4FE757E428
:100F40000E941903181664F5FE01ED5BFF4F6081E6
:100F500071818281938120E030E040E251E40E947F
:100F60001F02DC01CB01BC01CD010E944900DC0164
:100F7000CB019EAF8DAF0FC088EC90E09CAF8BAFE4
:100F80008BAD9CAD0197F1F79CAF8BAF8DAD9EAD56
:100F900001979EAF8DAF8DAD9EAD009769F716C0DE
:100FA000FE01FF9660817181828193810E944900D8
:100FB000DC01CB019EAF8DAF8DAD9EAD9AAF89AFF9
:100FC00089AD9AAD0197F1F79AAF89AF88E30E9496
:100FD000C60980E090E0A0E8BFE38DAB9EABAFAB6D
:100FE000B8AF6DA97EA98FA998AD20E030E04AEF97
:100FF00054E40E941F02DC01CB0189AB9AABABAB7E
:10100000BCAB69A97AA98BA99CA920E030E040E893
:101010005FE30E94790388232CF481E090E098AB91
:101020008FA73FC069A97AA98BA99CA920E03FEFAF
:101030004FE757E40E94190318164CF56DA97EA9D5
:101040008FA998AD20E030E040E251E40E941F02F9
:10105000DC01CB01BC01CD010E944900DC01CB01C8
:1010600098AB8FA70FC088EC90E09EA78DA78DA5A9
:101070009EA50197F1F79EA78DA78FA598A9019727
:1010800098AB8FA78FA598A9009769F714C069A995
:101090007AA98BA99CA90E944900DC01CB0198ABDD
:1010A0008FA78FA598A99CA78BA78BA59CA5019717
:1010B000F1F79CA78BA78CE00E94C60980E090E026
:1010C000A0E8BFE38FA398A7A9A7BAA76FA178A5A7
:1010D00089A59AA520E030E04AEF54E40E941F025F
:1010E000DC01CB018BA39CA3ADA3BEA36BA17CA110
:1010F0008DA19EA120E030E040E85FE30E947903EB
:1011000088232CF481E090E09AA389A33FC06BA1CF
:101110007CA18DA19EA120E03FEF4FE757E40E9404
:10112000190318164CF56FA178A589A59AA520E09A
:1011300030E040E251E40E941F02DC01CB01BC011F
:10114000CD010E944900DC01CB019AA389A30FC005
:1011500088EC90E098A38F8F8F8D98A10197F1F77D
:1011600098A38F8F89A19AA101979AA389A389A196
:101170009AA1009769F714C06BA17CA18DA19EA1D3
:101180000E944900DC01CB019AA389A389A19AA1FD
:101190009E8F8D8F8D8D9E8D0197F1F79E8F8D8FF8
:1011A00081E00E94C60980E090E0A0E0B0E4898F71
:1011B0009A8FAB8FBC8F698D7A8D8B8D9C8D20E043
:1011C00030E04AEF54E40E941F02DC01CB018D8B1A
:1011D0009E8BAF8BB88F6D897E898F89988D20E02B
:1011E00030E040E85FE30E94790388232CF481E03B
:1011F00090E09C8B8B8B3FC06D897E898F89988D09
:1012000020E03FEF4FE757E40E94190318164CF512
:10121000698D7A8D8B8D9C8D20E030E040E251E429
:101220000E941F02DC01CB01BC01CD010E944900DC
:10123000DC01CB019C8B8B8B0FC088EC90E09A8BF0
:10124000898B89899A890197F1F79A8B898B8B8988
:101250009C8901979C8B8B8B8B899C89009769F764
:1012600014C06D897E898F89988D0E944900DC01A8
:10127000CB019C8B8B8B8B899C89988B8F878F85DF
:1012800098890197F1F7988B8F8786E00E94C609AD
:1012900080E090E0A0E8BFE38B879C87AD87BE87A6
:1012A0006B857C858D859E8520E030E04AEF54E497
:1012B0000E941F02DC01CB018F839887A987BA8720
:1012C0006F81788589859A8520E030E040E85FE38A
:1012D0000E94790388232CF481E090E09E838D8323
:1012E0003FC06F81788589859A8520E03FEF4FE781
:1012F00057E40E94190318164CF56B857C858D8583
:101300009E8520E030E040E251E40E941F02DC01B3
:10131000CB01BC01CD010E944900DC01CB019E83C1
:101320008D830FC088EC90E09C838B838B819C81A4
:101330000197F1F79C838B838D819E8101979E831A
:101340008D838D819E81009769F714C06F817885A8
:1013500089859A850E944900DC01CB019E838D839B
:101360008D819E819A83898389819A810197F1F782
:101370009A838983CA5BDF4F0FB6F894DEBF0FBE36
:10138000CDBFCF91DF911F910F910895DF93CF9340
:10139000CDB7DEB72F970FB6F894DEBF0FBECDBF27
:1013A0008F8781E060E040E00E94AC0E81E061E068
:1013B00040E00E94AC0E8F850E94000B81E062E04D
:1013C00041E00E94AC0E80E090E0A0E0B0E48B87AA
:1013D0009C87AD87BE876B857C858D859E8520E04B
:1013E00030E04AEF54E40E941F02DC01CB018F83FE
:1013F0009887A987BA876F81788589859A8520E043
:1014000030E040E85FE30E94790388232CF481E018
:1014100090E09E838D833FC06F81788589859A8512
:1014200020E03FEF4FE757E40E94190318164CF5F0
:101430006B857C858D859E8520E030E040E251E41F
:101440000E941F02DC01CB01BC01CD010E944900BA
:10145000DC01CB019E838D830FC088EC90E09C83E0
:101460008B838B819C810197F1F79C838B838D818A
:101470009E8101979E838D838D819E81009769F760
:1014800014C06F81788589859A850E944900DC01A6
:10149000CB019E838D838D819E819A8389838981EF
:1014A0009A810197F1F79A83898381E062E040E0B5
:1014B0000E94AC0E2F960FB6F894DEBF0FBECDBFC4
:1014C000CF91DF910895DF93CF93CDB7DEB72F97FC
:1014D0000FB6F894DEBF0FBECDBF8F8781E060E00E
:1014E00041E00E94AC0E81E061E040E00E94AC0E61
:1014F0008F850E94000B81E062E041E00E94AC0E0B
:1015000080E090E0A0E0B0E48B879C87AD87BE8749
:101510006B857C858D859E8520E030E04AEF54E424
:101520000E941F02DC01CB018F839887A987BA87AD
:101530006F81788589859A8520E030E040E85FE317
:101540000E94790388232CF481E090E09E838D83B0
:101550003FC06F81788589859A8520E03FEF4FE70E
:1015600057E40E94190318164CF56B857C858D8510
:101570009E8520E030E040E251E40E941F02DC0141
:10158000CB01BC01CD010E944900DC01CB019E834F
:101590008D830FC088EC90E09C838B838B819C8132
:1015A0000197F1F79C838B838D819E8101979E83A8
:1015B0008D838D819E81009769F714C06F81788536
:1015C00089859A850E944900DC01CB019E838D8329
:1015D0008D819E819A83898389819A810197F1F710
:1015E0009A83898381E062E040E00E94AC0E2F96EE
:1015F0000FB6F894DEBF0FBECDBFCF91DF91089537
:10160000DF93CF930F92CDB7DEB7898380E06981F6
:101610000E94FF100F90CF91DF910895DF93CF9339
:1016200000D0CDB7DEB789836A838981882329F406
:101630008A8180580E94C60907C08981813021F4BF
:101640008A8180540E94C6090F900F90CF91DF913C
:101650000895DF93CF9300D0CDB7DEB79A83898307
:101660000AC0E981FA8180810E94630A89819A8196
:1016700001969A838983E981FA818081882389F799
:101680000F900F90CF91DF910895DF93CF930F923A
:10169000CDB7DEB7898389818436F8F0898194E6F5
:1016A000692F0E94D612805D0E94630A898194E6A8
:1016B000692F0E94D612892F9AE0692F0E94D612B4
:1016C000805D0E94630A89819AE0692F0E94D61288
:1016D000892F805D0E94630A19C089818A3090F049
:1016E00089819AE0692F0E94D612805D0E94630A68
:1016F00089819AE0692F0E94D612892F805D0E940D
:10170000630A04C08981805D0E94630A0F90CF91B3
:10171000DF910895DF93CF93CDB7DEB783E064E028
:1017200041E00E94AC0E83E065E041E00E94AC0E17
:1017300083E066E041E00E94AC0E83E067E041E0B8
:101740000E94AC0E83E060E041E00E94AC0E83E0BA
:1017500061E041E00E94AC0E83E062E041E00E9463
:10176000AC0E83E063E041E00E94AC0ECF91DF91CC
:101770000895DF93CF93CDB7DEB72A970FB6F894CD
:10178000DEBF0FBECDBF8FEF898383E060E040E016
:101790000E94AC0E83E061E041E00E94AC0E83E069
:1017A00062E041E00E94AC0E83E063E041E00E9411
:1017B000AC0E83E064E00E94B40F8A8383E065E0AE
:1017C0000E94B40F882F90E0880F991F982F8A816C
:1017D000892B8A8383E066E00E94B40F882F90E013
:1017E000880F991F880F991F982F8A81892B8A83C8
:1017F00083E067E00E94B40F882F90E0880F991F64
:10180000880F991F880F991F982F8A81892B8A83A7
:101810008A81282F30E03A87298789859A858B30FD
:101820009105D9F029853A852C30310534F4898524
:101830009A8587309105A1F016C029853A852D300B
:10184000310541F089859A858E30910561F481E3F7
:1018500089830BC084E3898308C087E3898305C03B
:101860008AE2898302C08FEF898383E060E041E0F0
:101870000E94AC0E83E061E040E00E94AC0E83E089
:1018800062E041E00E94AC0E83E063E041E00E9430
:10189000AC0E83E064E00E94B40F8A8383E065E0CD
:1018A0000E94B40F882F90E0880F991F982F8A818B
:1018B000892B8A8383E066E00E94B40F882F90E032
:1018C000880F991F880F991F982F8A81892B8A83E7
:1018D00083E067E00E94B40F882F90E0880F991F83
:1018E000880F991F880F991F982F8A81892B8A83C7
:1018F0008A81282F30E038872F838F8198858B301D
:101900009105D9F02F8138852C30310534F48F8141
:10191000988587309105A1F016C02F8138852D302C
:10192000310541F08F8198858E30910561F482E315
:1019300089830BC085E3898308C088E3898305C058
:1019400080E3898302C08FEF898383E060E041E018
:101950000E94AC0E83E061E041E00E94AC0E83E0A7
:1019600062E040E00E94AC0E83E063E041E00E9450
:10197000AC0E83E064E00E94B40F8A8383E065E0EC
:101980000E94B40F882F90E0880F991F982F8A81AA
:10199000892B8A8383E066E00E94B40F882F90E051
:1019A000880F991F880F991F982F8A81892B8A8306
:1019B00083E067E00E94B40F882F90E0880F991FA2
:1019C000880F991F880F991F982F8A81892B8A83E6
:1019D0008A81282F30E03E832D838D819E818B303C
:1019E0009105D9F02D813E812C30310534F48D8163
:1019F0009E8187309105A1F016C02D813E812D304A
:101A0000310541F08D819E818E30910561F483E333
:101A100089830BC086E3898308C089E3898305C075
:101A200083E2898302C08FEF898383E060E041E035
:101A30000E94AC0E83E061E041E00E94AC0E83E0C6
:101A400062E041E00E94AC0E83E063E040E00E946F
:101A5000AC0E83E064E00E94B40F8A8383E065E00B
:101A60000E94B40F882F90E0880F991F982F8A81C9
:101A7000892B8A8383E066E00E94B40F882F90E070
:101A8000880F991F880F991F982F8A81892B8A8325
:101A900083E067E00E94B40F882F90E0880F991FC1
:101AA000880F991F880F991F982F8A81892B8A8305
:101AB0008A81282F30E03C832B838B819C818B3063
:101AC0009105D9F02B813C812C30310534F48B8188
:101AD0009C8187309105A1F016C02B813C812D306F
:101AE000310541F08B819C818E30910561F48FE24C
:101AF00089830BC08BE2898308C08DE2898305C08E
:101B00008AE2898302C08FEF898389812A960FB682
:101B1000F894DEBF0FBECDBFCF91DF910895DF9364
:101B2000CF93CDB7DEB7EAE3F0E08FEF8083E7E352
:101B3000F0E08FEF8083E4E3F0E01082E1E3F0E097
:101B40001082CF91DF910895DF93CF93CDB7DEB7A9
:101B500027970FB6F894DEBF0FBECDBF89836A8387
:101B60004B838981843008F0EEC08A81883008F088
:101B7000EAC08B81813009F06FC08981282F30E065
:101B80003F832E838E819F818130910549F12E8183
:101B90003F81223031052CF48E819F81009761F0C6
:101BA000D2C02E813F812230310571F18E819F811B
:101BB00083309105E9F1C7C0AAE3B0E0EAE3F0E0C1
:101BC0008081482F8A81282F30E081E090E0022E2A
:101BD00002C0880F991F0A94E2F7842B8C93B3C03C
:101BE000A7E3B0E0E7E3F0E08081482F8A81282F67
:101BF00030E081E090E0022E02C0880F991F0A9425
:101C0000E2F7842B8C939FC0A4E3B0E0E4E3F0E020
:101C10008081482F8A81282F30E081E090E0022ED9
:101C200002C0880F991F0A94E2F7842B8C938BC013
:101C3000A1E3B0E0E1E3F0E08081482F8A81282F22
:101C400030E081E090E0022E02C0880F991F0A94D4
:101C5000E2F7842B8C9377C08B81882309F073C0C3
:101C60008981282F30E03D832C838C819D818130B8
:101C7000910559F12C813D81223031052CF48C8164
:101C80009D81009769F05FC02C813D812230310534
:101C900089F18C819D818330910509F440C053C046
:101CA000AAE3B0E0EAE3F0E08081482F8A81282FA0
:101CB00030E081E090E0022E02C0880F991F0A9464
:101CC000E2F7809584238C933EC0A7E3B0E0E7E37E
:101CD000F0E08081482F8A81282F30E081E090E079
:101CE000022E02C0880F991F0A94E2F78095842380
:101CF0008C9329C0A4E3B0E0E4E3F0E08081482FB6
:101D00008A81282F30E081E090E0022E02C0880F07
:101D1000991F0A94E2F7809584238C9314C0A1E361
:101D2000B0E0E1E3F0E08081482F8A81282F30E0A5
:101D300081E090E0022E02C0880F991F0A94E2F71A
:101D4000809584238C9327960FB6F894DEBF0FBE40
:101D5000CDBFCF91DF910895DF93CF93CDB7DEB79D
:101D600027970FB6F894DEBF0FBECDBF89836A8375
:101D70004B838981843008F0EEC08A81883008F076
:101D8000EAC08B81813009F06FC08981282F30E053
:101D90003F832E838E819F818130910549F12E8171
:101DA0003F81223031052CF48E819F81009761F0B4
:101DB000D2C02E813F812230310571F18E819F8109
:101DC00083309105E9F1C7C0ABE3B0E0EBE3F0E0AD
:101DD0008081482F8A81282F30E081E090E0022E18
:101DE00002C0880F991F0A94E2F7842B8C93B3C02A
:101DF000A8E3B0E0E8E3F0E08081482F8A81282F53
:101E000030E081E090E0022E02C0880F991F0A9412
:101E1000E2F7842B8C939FC0A5E3B0E0E5E3F0E00C
:101E20008081482F8A81282F30E081E090E0022EC7
:101E300002C0880F991F0A94E2F7842B8C938BC001
:101E4000A2E3B0E0E2E3F0E08081482F8A81282F0E
:101E500030E081E090E0022E02C0880F991F0A94C2
:101E6000E2F7842B8C9377C08B81882309F073C0B1
:101E70008981282F30E03D832C838C819D818130A6
:101E8000910559F12C813D81223031052CF48C8152
:101E90009D81009769F05FC02C813D812230310522
:101EA00089F18C819D818330910509F440C053C034
:101EB000ABE3B0E0EBE3F0E08081482F8A81282F8C
:101EC00030E081E090E0022E02C0880F991F0A9452
:101ED000E2F7809584238C933EC0A8E3B0E0E8E36A
:101EE000F0E08081482F8A81282F30E081E090E067
:101EF000022E02C0880F991F0A94E2F7809584236E
:101F00008C9329C0A5E3B0E0E5E3F0E08081482FA1
:101F10008A81282F30E081E090E0022E02C0880FF5
:101F2000991F0A94E2F7809584238C9314C0A2E34E
:101F3000B0E0E2E3F0E08081482F8A81282F30E092
:101F400081E090E0022E02C0880F991F0A94E2F708
:101F5000809584238C9327960FB6F894DEBF0FBE2E
:101F6000CDBFCF91DF910895DF93CF9300D000D004
:101F70000F92CDB7DEB78A836B8319828A81843052
:101F800008F06BC08B81883008F067C08A81282FE9
:101F900030E03D832C834C815D814130510541F11E
:101FA0008C819D818230910534F42C813D812115F5
:101FB000310561F052C04C815D814230510551F1D3
:101FC0008C819D8183309105B9F147C0E9E3F0E050
:101FD0008081282F30E08B81882F90E0A90102C0FA
:101FE000559547958A95E2F7CA018170898335C076
:101FF000E6E3F0E08081282F30E08B81882F90E0AD
:10200000A90102C0559547958A95E2F7CA018170EA
:10201000898323C0E3E3F0E08081282F30E08B81C7
:10202000882F90E0A90102C0559547958A95E2F75F
:10203000CA018170898311C0E0E3F0E08081282F1C
:1020400030E08B81882F90E0A90102C0559547951B
:102050008A95E2F7CA018170898389810F900F9078
:102060000F900F900F90CF91DF910895DF93CF9352
:1020700000D000D0CDB7DEB789836A8389818430F0
:1020800008F072C08A81883008F06EC08981282FDC
:1020900030E03C832B838B819C818130910549F119
:1020A0002B813C81223031052CF48B819C8100975F
:1020B00061F05AC02B813C812230310571F18B8156
:1020C0009C8183309105E9F14FC0ABE3B0E0EBE3D5
:1020D000F0E08081482F8A81282F30E081E090E075
:1020E000022E02C0880F991F0A94E2F784278C936E
:1020F0003BC0A8E3B0E0E8E3F0E08081482F8A81AC
:10210000282F30E081E090E0022E02C0880F991F56
:102110000A94E2F784278C9327C0A5E3B0E0E5E3B7
:10212000F0E08081482F8A81282F30E081E090E024
:10213000022E02C0880F991F0A94E2F784278C931D
:1021400013C0A2E3B0E0E2E3F0E08081482F8A818F
:10215000282F30E081E090E0022E02C0880F991F06
:102160000A94E2F784278C930F900F900F900F90B2
:10217000CF91DF910895DF93CF9300D000D0CDB7FA
:10218000DEB789836A838981843090F58981282F1D
:1021900030E03C832B838B819C8181309105D1F091
:1021A0002B813C81223031052CF48B819C8100975E
:1021B00061F01EC02B813C812230310581F08B8182
:1021C0009C818330910581F013C0EAE3F0E08A81BD
:1021D00080830EC0E7E3F0E08A81808309C0E4E3F6
:1021E000F0E08A81808304C0E1E3F0E08A818083AB
:1021F0000F900F900F900F90CF91DF910895DF9384
:10220000CF9300D000D0CDB7DEB789836A838981B0
:10221000843090F58981282F30E03C832B838B819B
:102220009C8181309105D1F02B813C812230310598
:102230002CF48B819C81009761F01EC02B813C8126
:102240002230310581F08B819C818330910581F0B2
:1022500013C0EBE3F0E08A8180830EC0E8E3F0E096
:102260008A81808309C0E5E3F0E08A81808304C02D
:10227000E2E3F0E08A8180830F900F900F900F903F
:10228000CF91DF910895DF93CF93CDB7DEB7A6E26C
:10229000B0E0E6E2F0E080818F778C93A6E2B0E0D8
:1022A000E6E2F0E080818F7B8C93A6E2B0E0E6E28C
:1022B000F0E080818F7D8C93A6E2B0E0E6E2F0E072
:1022C000808180618C93A6E2B0E0E6E2F0E080815C
:1022D000877F8C93A7E2B0E0E7E2F0E08081806244
:1022E0008C93A7E2B0E0E7E2F0E08081807E8C93FF
:1022F000A7E2B0E0E7E2F0E080818C93A6E2B0E0F4
:10230000E6E2F0E0808184608C93A6E2B0E0E6E251
:10231000F0E0808182608C93A6E2B0E0E6E2F0E03B
:10232000808181608C93CF91DF910895DF93CF936B
:10233000CDB7DEB7A6E2B0E0E6E2F0E080818068EB
:102340008C93CF91DF910895DF93CF93CDB7DEB714
:10235000A6E2B0E0E6E2F0E080818F778C93CF9147
:10236000DF910895DF93CF93CDB7DEB7E5E2F0E0DC
:102370008081882F90E0CF91DF910895DF93CF93F4
:10238000CDB7DEB7A6E2B0E0E6E2F0E0808180649F
:102390008C93E6E2F0E0808182958F70882F90E048
:1023A000817090700097A9F3A6E2B0E0E6E2F0E059
:1023B000808180618C93CF91DF910895DF93CF93DB
:1023C000CDB7DEB7A6E2B0E0E6E2F0E08081806261
:1023D0008C93A0E5B0E0E0E5F0E080818F718C9314
:1023E000A0E5B0E0E0E5F0E080818C93CF91DF9153
:1023F0000895DF93CF93CDB7DEB7A6E2B0E0E6E273
:10240000F0E0808188608C93CF91DF910895DF9315
:10241000CF9300D0CDB7DEB79A83898389819A8123
:1024200090936D0080936C000F900F90CF91DF918F
:1024300008951F920F920FB60F9211242F933F937E
:102440004F935F936F937F938F939F93AF93BF93BC
:10245000EF93FF93DF93CF93CDB7DEB780916C00FE
:1024600090916D00009729F0E0916C00F0916D0063
:102470000995CF91DF91FF91EF91BF91AF919F911E
:102480008F917F916F915F914F913F912F910F901D
:102490000FBE0F901F901895DF93CF93CDB7DEB787
:1024A0002F970FB6F894DEBF0FBECDBF0E948F0DE1
:1024B0000E9454070E94B90B8F878F858F3FD1F3FD
:1024C0008F850E94630A80E090E0AAE7B3E48B87DF
:1024D0009C87AD87BE876B857C858D859E8520E03A
:1024E00030E04AEF54E40E941F02DC01CB018F83ED
:1024F0009887A987BA876F81788589859A8520E032
:1025000030E040E85FE30E94790388232CF481E007
:1025100090E09E838D833FC06F81788589859A8501
:1025200020E03FEF4FE757E40E94190318164CF5DF
:102530006B857C858D859E8520E030E040E251E40E
:102540000E941F02DC01CB01BC01CD010E944900A9
:10255000DC01CB019E838D830FC088EC90E09C83CF
:102560008B838B819C810197F1F79C838B838D8179
:102570009E8101979E838D838D819E81009769F74F
:1025800099CF6F81788589859A850E944900DC0101
:10259000CB019E838D838D819E819A8389838981DE
:1025A0009A810197F1F79A83898384CF991B79E007
:1025B00004C0991F961708F0961B881F7A95C9F7D3
:1025C000809508952F923F924F925F926F927F92E3
:1025D0008F929F92AF92BF92CF92DF92EF92FF9233
:1025E0000F931F93CF93DF93CDB7DEB7CA1BDB0BDF
:1025F0000FB6F894DEBF0FBECDBF09942A88398884
:1026000048885F846E847D848C849B84AA84B9848A
:10261000C884DF80EE80FD800C811B81AA81B98196
:10262000CE0FD11D0FB6F894DEBF0FBECDBFED01AA
:062630000895F894FFCFAD
:0826360000000000000000009C
:00000001FF
