:100000000C942A000C9447000C9447000C94470071
:100010000C9447000C9447000C9447000C94470044
:100020000C9447000C9447000C9447000C94470034
:100030000C9447000C9447000C9447000C94470024
:100040000C9447000C9447000C9447000C94470014
:100050000C94470011241FBECFE5D8E0DEBFCDBF12
:1000600010E0A0E6B0E0E6E7FBE102C005900D92EB
:10007000AE3CB107D9F710E0AEECB0E001C01D9284
:10008000A03DB107E1F70E94D10B0C94B90D0C947F
:100090000000EF92FF920F931F937B018C0120E0F1
:1000A00030E040E05FE40E94490388238CF0C801FF
:1000B000B70120E030E040E05FE40E94C1010E940F
:1000C000A9039B01AC01205030404040504806C07D
:1000D000C801B7010E94A9039B01AC01B901CA0183
:1000E0001F910F91FF90EF900895A0E0B0E0EBE733
:1000F000F0E00C94820DDC012B01FA019C9192300E
:1001000008F439C1EB018881823008F433C194309E
:1001100069F4843009F02FC111969C91119789815F
:10012000981709F428C1AEEAB0E025C1843009F47B
:1001300021C18230A9F4923009F01DC19A01AD01AC
:1001400088E0EA010990AE01E90109929E0181501F
:10015000C1F7E201898111969C918923818308C1AD
:10016000923009F407C112962D903C901397EB0141
:100170008A819B811496AD90BD90CD90DC901797AD
:10018000EC80FD800E811F819101281B390BB90184
:1001900037FF04C066277727621B730B6032710537
:1001A0000CF061C0121613066CF537014801062EDB
:1001B00004C096948794779467940A94D2F721E0C8
:1001C00030E040E050E004C0220F331F441F551FB1
:1001D0006A95D2F721503040404050402E213F21B7
:1001E00040235123211531054105510521F021E01E
:1001F00030E040E050E079018A01E628F72808293C
:1002000019293CC0232BD1F1260E371E350146019A
:10021000062E04C096948794779467940A94D2F734
:1002200021E030E040E050E004C0220F331F441FC3
:10023000551F6A95D2F721503040404050402A2146
:100240003B214C215D21211531054105510521F04E
:1002500021E030E040E050E059016A01A628B728CB
:10026000C828D9280BC0821593052CF01C01AA249C
:10027000BB24650103C0EE24FF24870111969C91E5
:10028000D20111968C91981709F445C0992339F041
:10029000A80197012A193B094C095D0906C0A6016E
:1002A00095012E193F09400B510B57FD08C01182D3
:1002B0003382228224833583468357831DC081E0A5
:1002C00081833382228288279927DC01821B930B4A
:1002D000A40BB50B84839583A683B7830DC0220F2F
:1002E000331F441F551F24833583468357838281E0
:1002F000938101979383828324813581468157813D
:10030000DA01C9010197A109B1098F5F9F4FAF4F72
:10031000BF4328F30BC0918333822282EA0CFB1C7B
:100320000C1D1D1DE482F5820683178383E0808304
:10033000248135814681578157FF1AC0C901AA27F8
:1003400097FDA095BA2F81709070A070B0705695EF
:10035000479537952795822B932BA42BB52B848318
:100360009583A683B7838281938101969383828349
:10037000DF0101C0D201CD01CDB7DEB7E2E10C94BF
:100380009E0DA0E2B0E0E7ECF1E00C948E0D6983E5
:100390007A838B839C832D833E834F835887E9E048
:1003A000EE2EF12CEC0EFD1ECE010196B7010E943F
:1003B000D2048E010F5E1F4FCE010596B8010E9438
:1003C000D2048A8991E089278A8BC701B801AE01DE
:1003D000475E5F4F0E9475000E94FD03A096E6E015
:1003E0000C94AA0DA0E2B0E0E8EFF1E00C948E0DC1
:1003F00069837A838B839C832D833E834F835887C5
:10040000F9E0EF2EF12CEC0EFD1ECE010196B701A6
:100410000E94D2048E010F5E1F4FCE010596B801D7
:100420000E94D204C701B801AE01475E5F4F0E942F
:1004300075000E94FD03A096E6E00C94AA0DA0E2D0
:10044000B0E0E5E2F2E00C94820D69837A838B835D
:100450009C832D833E834F835887CE010196BE0136
:10046000675F7F4F0E94D204CE010596BE016F5E8A
:100470007F4F0E94D2049985923088F0898982301A
:10048000C8F0943019F4823051F404C0843029F457
:10049000923081F48EEA90E0C6C0923049F420E0B8
:1004A0009A858A89981321E02A87CE010996BBC0D4
:1004B000823049F420E09A858A89981321E02A8BBA
:1004C000CE014196B0C02D843E844F8458886D88FB
:1004D0007E888F88988CEE24FF248701AA24BB2471
:1004E000650140E050E060E070E0E0E0F0E0C10174
:1004F00081709070892BE9F0E60CF71C081D191D1E
:100500009A01AB012A0D3B1D4C1D5D1D80E090E062
:10051000A0E0B0E0E614F7040805190520F481E036
:1005200090E0A0E0B0E0BA01A901480F591F6A1F8E
:100530007B1FAA0CBB1CCC1CDD1C97FE08C081E0F5
:1005400090E0A0E0B0E0A82AB92ACA2ADB2A3196B6
:10055000E032F10549F0660C771C881C991C569412
:10056000479437942794C3CFFA85EA892B893C892D
:100570008B859C85280F391F2E5F3F4F17C0CA01FE
:1005800081709070892B61F016950795F794E79428
:1005900080E090E0A0E0B0E8E82AF92A0A2B1B2BC3
:1005A00076956795579547952F5F3F4F77FDE7CF36
:1005B0000CC0440F551F661F771F17FD4160EE0CDE
:1005C000FF1C001F111F21503040403090E05907A0
:1005D00090E0690790E4790760F32B8F3C8FDB0193
:1005E000CA018F779070A070B07080349105A1051A
:1005F000B10561F447FD0AC0E114F10401051105DC
:1006000029F0405C5F4F6F4F7F4F40781A8EFE1786
:1006100011F081E08A8F4D8F5E8F6F8F78A383E01A
:10062000898FCE0149960E94FD03A096E2E10C94C9
:100630009E0DA8E1B0E0EFE1F3E00C948E0D69832C
:100640007A838B839C832D833E834F83588789E0F5
:10065000E82EF12CEC0EFD1ECE010196B7010E9492
:10066000D2048E010F5E1F4FCE010596B8010E9485
:10067000D2048985823040F08989823028F0C70110
:10068000B8010E944A0501C08FEF6896E6E00C941D
:10069000AA0DA8E1B0E0EFE4F3E00C948E0D6983BD
:1006A0007A838B839C832D833E834F83588789E095
:1006B000E82EF12CEC0EFD1ECE010196B7010E9432
:1006C000D2048E010F5E1F4FCE010596B8010E9425
:1006D000D2048985823040F08989823028F0C701B0
:1006E000B8010E944A0501C08FEF6896E6E00C94BD
:1006F000AA0DA8E1B0E0EFE7F3E00C948E0D69835A
:100700007A838B839C832D833E834F83588789E034
:10071000E82EF12CEC0EFD1ECE010196B7010E94D1
:10072000D2048E010F5E1F4FCE010596B8010E94C4
:10073000D2048985823040F08989823028F0C7014F
:10074000B8010E944A0501C081E06896E6E00C9479
:10075000AA0DACE0B0E0EFEAF3E00C94920D6983EF
:100760007A838B839C83CE010196BE016B5F7F4FA2
:100770000E94D2048D81823061F1823050F1843048
:1007800021F48E81882351F12EC02F81388537FDC9
:1007900020C06E812F3131051CF06623F9F023C093
:1007A0008EE190E0821B930B29853A854B855C8511
:1007B00004C056954795379527958A95D2F76623B5
:1007C000B1F050954095309521953F4F4F4F5F4F79
:1007D0000EC020E030E040E050E009C02FEF3FEFD6
:1007E0004FEF5FE704C020E030E040E050E8B9019F
:1007F000CA012C96E2E00C94AE0DDF92EF92FF92CC
:100800000F931F93FC01E480F58006811781D1804E
:100810008081823048F480E090E0A0E1B0E0E82AF6
:10082000F92A0A2B1B2BA5C0843009F49FC0823003
:1008300021F4EE24FF24870105C0E114F104010531
:10084000110519F4E0E0F0E096C0628173819FEF3A
:10085000623879070CF05BC022E83FEF261B370BAC
:100860002A3131052CF020E030E040E050E02AC091
:10087000B801A701022E04C0769567955795479554
:100880000A94D2F781E090E0A0E0B0E004C0880FC5
:10089000991FAA1FBB1F2A95D2F70197A109B10979
:1008A0008E219F21A023B1230097A105B10521F03E
:1008B00081E090E0A0E0B0E09A01AB01282B392B59
:1008C0004A2B5B2BDA01C9018F779070A070B07052
:1008D00080349105A105B10539F427FF09C0205CDA
:1008E0003F4F4F4F5F4F04C0215C3F4F4F4F5F4F13
:1008F000E0E0F0E02030A0E03A07A0E04A07A0E402
:100900005A0710F0E1E0F0E079018A0127C0603871
:10091000710564F5FB01E158FF4FD801C7018F77DE
:100920009070A070B07080349105A105B10539F4C4
:10093000E7FE0DC080E490E0A0E0B0E004C08FE3EB
:1009400090E0A0E0B0E0E80EF91E0A1F1B1F17FFA1
:1009500005C016950795F794E794319687E01695AC
:100960000795F794E7948A95D1F705C0EE24FF2404
:100970008701EFEFF0E06E2F679566276795902F60
:100980009F77D794DD24D7948E2F8695492F462BB9
:10099000582F5D29B701CA011F910F91FF90EF9069
:1009A000DF900895FC01DB01408151812281622F9B
:1009B0006F7770E0221F2227221F9381892F880FD3
:1009C000822B282F30E0991F9927991F11969C930D
:1009D000119721153105A9F54115510561057105DD
:1009E00011F482E037C082E89FEF13969C938E93B8
:1009F00012979A01AB0167E0220F331F441F551F66
:100A00006A95D1F783E08C930DC0220F331F441FEA
:100A1000551F12968D919C911397019713969C9355
:100A20008E931297203080E0380780E0480780E4FA
:100A3000580758F314962D933D934D935C93179755
:100A400008952F3F310579F4411551056105710570
:100A500019F484E08C93089564FF03C081E08C93C3
:100A600012C01C9210C02F57304013963C932E9307
:100A7000129783E08C9387E0440F551F661F771F02
:100A80008A95D1F7706414964D935D936D937C9322
:100A9000179708951F93DC01FB019C91923008F495
:100AA00047C08081823008F443C0943051F41196DD
:100AB0001C91843099F58181682F70E0611B710968
:100AC0003FC0843021F0923031F48230B9F181811D
:100AD000882389F12DC011961C9111978230F1F075
:100AE00081811817D9F412962D913C911397828128
:100AF00093818217930794F028173907BCF0149656
:100B00008D919D910D90BC91A02D248135814681C0
:100B10005781281739074A075B0718F4112341F05A
:100B20000AC082179307A407B50740F4112319F0F0
:100B300061E070E005C06FEF7FEF02C060E070E041
:100B4000CB011F910895DF93CF93CDB7DEB7E7E2D6
:100B5000F0E080E48083E6E2F0E087E88083CF91F4
:100B6000DF910895DF93CF930F92CDB7DEB78983DE
:100B7000A7E2B0E0E7E2F0E08081982F907E8981E3
:100B80008F71892B8C93A6E2B0E0E6E2F0E08081E1
:100B900080648C93E6E2F0E080818295869586956C
:100BA0008370882F90E081709070882399F7E4E239
:100BB000F0E0808191810F90CF91DF910895DF93D4
:100BC000CF9300D000D00F92CDB7DEB789836A8370
:100BD0004B838981282F30E03D832C838C819D813C
:100BE0008130910509F443C02C813D8122303105CB
:100BF0002CF48C819D81009771F0BCC02C813D81CB
:100C00002230310509F45FC08C819D8183309105CC
:100C100009F485C0AFC08B818130A1F4AAE3B0E0B4
:100C2000EAE3F0E08081482F8A81282F30E081E0DC
:100C300090E0022E02C0880F991F0A94E2F7842BDD
:100C40008C9398C0AAE3B0E0EAE3F0E08081482FFB
:100C50008A81282F30E081E090E0022E02C0880FC8
:100C6000991F0A94E2F7809584238C9383C08B812B
:100C70008130A1F4A7E3B0E0E7E3F0E08081482F02
:100C80008A81282F30E081E090E0022E02C0880F98
:100C9000991F0A94E2F7842B8C936CC0A7E3B0E011
:100CA000E7E3F0E08081482F8A81282F30E081E05F
:100CB00090E0022E02C0880F991F0A94E2F78095F7
:100CC00084238C9357C08B818130A1F4A4E3B0E0DE
:100CD000E4E3F0E08081482F8A81282F30E081E032
:100CE00090E0022E02C0880F991F0A94E2F7842B2D
:100CF0008C9340C0A4E3B0E0E4E3F0E08081482FAF
:100D00008A81282F30E081E090E0022E02C0880F17
:100D1000991F0A94E2F7809584238C932BC08B81D2
:100D20008130A1F4A1E3B0E0E1E3F0E08081482F5D
:100D30008A81282F30E081E090E0022E02C0880FE7
:100D4000991F0A94E2F7842B8C9314C0A1E3B0E0BE
:100D5000E1E3F0E08081482F8A81282F30E081E0B4
:100D600090E0022E02C0880F991F0A94E2F7809546
:100D700084238C930F900F900F900F900F90CF9132
:100D8000DF910895DF93CF9300D000D00F92CDB7BD
:100D9000DEB789836A834B838981282F30E03D83C6
:100DA0002C838C819D818130910509F443C02C8175
:100DB0003D81223031052CF48C819D81009771F0AA
:100DC000BCC02C813D812230310509F45FC08C818B
:100DD0009D818330910509F485C0AFC08B8181303E
:100DE000A1F4ABE3B0E0EBE3F0E08081482F8A812F
:100DF000282F30E081E090E0022E02C0880F991F7A
:100E00000A94E2F7842B8C9398C0ABE3B0E0EBE359
:100E1000F0E08081482F8A81282F30E081E090E047
:100E2000022E02C0880F991F0A94E2F7809584234E
:100E30008C9383C08B818130A1F4A8E3B0E0E8E318
:100E4000F0E08081482F8A81282F30E081E090E017
:100E5000022E02C0880F991F0A94E2F7842B8C930C
:100E60006CC0A8E3B0E0E8E3F0E08081482F8A811D
:100E7000282F30E081E090E0022E02C0880F991FF9
:100E80000A94E2F7809584238C9357C08B8181303C
:100E9000A1F4A5E3B0E0E5E3F0E08081482F8A818A
:100EA000282F30E081E090E0022E02C0880F991FC9
:100EB0000A94E2F7842B8C9340C0A5E3B0E0E5E30D
:100EC000F0E08081482F8A81282F30E081E090E097
:100ED000022E02C0880F991F0A94E2F7809584239E
:100EE0008C932BC08B818130A1F4A2E3B0E0E2E3CC
:100EF000F0E08081482F8A81282F30E081E090E067
:100F0000022E02C0880F991F0A94E2F7842B8C935B
:100F100014C0A2E3B0E0E2E3F0E08081482F8A81D0
:100F2000282F30E081E090E0022E02C0880F991F48
:100F30000A94E2F7809584238C930F900F900F9082
:100F40000F900F90CF91DF910895DF93CF9300D052
:100F500000D00F92CDB7DEB78A836B8319828A8166
:100F6000282F30E03D832C834C815D814130510539
:100F700041F18C819D818230910534F42C813D8139
:100F80002115310561F052C04C815D81423051051F
:100F900051F18C819D8183309105B9F147C0E9E31E
:100FA000F0E08081282F30E08B81882F90E0A9012C
:100FB00002C0559547958A95E2F7CA0181708983E9
:100FC00035C0E6E3F0E08081282F30E08B81882F68
:100FD00090E0A90102C0559547958A95E2F7CA01AC
:100FE0008170898323C0E3E3F0E08081282F30E023
:100FF0008B81882F90E0A90102C0559547958A956D
:10100000E2F7CA018170898311C0E0E3F0E08081DA
:10101000282F30E08B81882F90E0A90102C05595E0
:1010200047958A95E2F7CA018170898389810F907B
:101030000F900F900F900F90CF91DF910895DF9355
:10104000CF9300D000D000D0CDB7DEB78A836B83BA
:101050008B81813019F42FEF2E8301C01E823E81D7
:1010600039838A81282F30E03D832C838C819D81B8
:1010700081309105D1F02C813D81223031052CF455
:101080008C819D81009761F01EC02C813D812230B2
:10109000310581F08C819D818330910581F013C0F1
:1010A000EAE3F0E0898180830EC0E7E3F0E0898124
:1010B000808309C0E4E3F0E08981808304C0E1E338
:1010C000F0E08981808326960FB6F894DEBF0FBECC
:1010D000CDBFCF91DF910895DF93CF9300D000D0A3
:1010E000CDB7DEB789836A838981282F30E03C83BE
:1010F0002B838B819C8181309105D1F02B813C81A8
:10110000223031052CF48B819C81009761F01EC048
:101110002B813C812230310581F08B819C81833091
:10112000910581F013C0EBE3F0E08A8180830EC06B
:10113000E8E3F0E08A81808309C0E5E3F0E08A819A
:10114000808304C0E2E3F0E08A8180830F900F90F7
:101150000F900F90CF91DF910895DF93CF930F926F
:10116000CDB7DEB7198233C08981882F90E0FC01AA
:10117000EA53FF4F908181E0692F41E00E94DF0533
:101180008981882F90E0FC01EA53FF4F908181E034
:10119000692F41E00E94C2068981882F90E0FC01FE
:1011A000E653FF4F908181E0692F40E00E94DF0508
:1011B0008981882F90E0FC01E653FF4F908181E008
:1011C000692F41E00E94C20689818F5F89838981EE
:1011D000843050F20F90CF91DF910895DF93CF9339
:1011E00000D00F92CDB7DEB78FEF89831B8253C03B
:1011F0008B81882F90E0FC01EA53FF4F908181E0C2
:10120000692F40E00E94C2061A8233C08A81882F6B
:1012100090E0FC01E653FF4F908181E0692F0E942E
:10122000A507882319F58B81482F50E08A81282F44
:1012300030E0CA01880F991F880F991F820F931FF2
:10124000FC01EA54FF4F8081898384E190E00E9491
:101250003A0B8A81882F90E0FC01E653FF4F908182
:1012600081E0692F0E94A507882399F38A818F5F07
:101270008A838A81843050F28B81882F90E0FC0130
:10128000EA53FF4F908181E0692F41E00E94C2063E
:101290008B818F5F8B838B81843008F4A9CF898108
:1012A0000F900F900F90CF91DF910895DF93CF9320
:1012B0000F92CDB7DEB70E94EE08898389818F3FF8
:1012C000D1F389810F90CF91DF910895DF93CF9370
:1012D000CDB7DEB782E061E041E00E94C20681E066
:1012E00090E00E943A0B82E061E040E00E94C2067A
:1012F00081E090E00E943A0BCF91DF910895DF9357
:10130000CF930F92CDB7DEB789838981982F9170E3
:1013100082E064E0492F0E94C20689818695982F59
:10132000917082E065E0492F0E94C206898186950E
:101330008695982F917082E066E0492F0E94C20640
:101340008981869586958695982F917082E067E0D1
:10135000492F0E94C2060E9466090F90CF91DF912B
:101360000895DF93CF930F92CDB7DEB7898382E0E4
:1013700060E040E00E94C206898182958F700E94E1
:101380007F0989818F700E947F0982E090E00E942E
:101390003A0B0F90CF91DF910895DF93CF930F9287
:1013A000CDB7DEB7898382E060E041E00E94C206EB
:1013B000898182958F700E947F0989818F700E9438
:1013C0007F0981E090E00E943A0B0F90CF91DF916E
:1013D0000895DF93CF93CDB7DEB782E060E041E0C0
:1013E0000E94DF0582E061E041E00E94DF0582E0CB
:1013F00064E041E00E94DF0582E065E041E00E9498
:10140000DF0582E066E041E00E94DF0582E067E000
:1014100041E00E94DF058EE190E00E943A0B82E0FD
:1014200060E040E00E94C20683E00E947F0985E000
:1014300090E00E943A0B83E00E947F0981E090E0F7
:101440000E943A0B83E00E947F0981E090E00E94B5
:101450003A0B82E00E947F0988E20E94B1098CE089
:101460000E94B10981E00E94B10986E00E94B109A1
:10147000CF91DF910895DF93CF9300D00F92CDB736
:10148000DEB79B838A8319820EC08981282F30E0C2
:101490008A819B81FC01E20FF31F80810E94CD09AC
:1014A00089818F5F89838981282F30E08A819B81A0
:1014B000FC01E20FF31F8081882339F70F900F9012
:1014C0000F90CF91DF910895DF93CF9300D00F92CB
:1014D000CDB7DEB78A836B838A81882321F48B8121
:1014E0008058898303C08B818054898389810E94BD
:1014F000B1090F900F900F90CF91DF910895DF9376
:10150000CF93CDB7DEB781E00E94B10982E090E0D1
:101510000E943A0BCF91DF9108950F931F93DF93B1
:10152000CF93CDB7DEB762970FB6F894DEBF0FBE8C
:10153000CDBF6F87788B898B9A8B1A8219828F85A2
:101540009889A989BA890097A105B10521F480E39A
:101550000E94CD096CC08F859889A989BA89BB235F
:101560000CF042C081E089838F859889A989BA8966
:10157000B095A095909581959F4FAF4FBF4F8F87A6
:10158000988BA98BBA8B30C08A81082F112707FD51
:1015900010958F859889A989BA892AE030E040E0C2
:1015A00050E0BC01CD010E94450DDC01CB01282F8C
:1015B000205DCE010396FC01E00FF11F20838A819C
:1015C0008F5F8A838F859889A989BA892AE030E05C
:1015D00040E050E0BC01CD010E94450DDA01C90197
:1015E0008F87988BA98BBA8B8F859889A989BA899F
:1015F000181619061A061B063CF289818823A1F0E9
:101600008DE20E94CD0910C08A8181508A838A812F
:10161000282F332727FD3095CE010396FC01E20FDA
:10162000F31F80810E94CD098A8118166CF362969F
:101630000FB6F894DEBF0FBECDBFCF91DF911F91E3
:101640000F910895DF93CF93CDB7DEB7E3E5F0E0D8
:1016500083E08083E2E5F0E01082CF91DF9108958E
:10166000DF93CF93CDB7DEB7E2E5F0E08081CF9195
:10167000DF910895DF93CF93CDB7DEB762970FB6B2
:10168000F894DEBF0FBECDBF9A8B898B188A1F8658
:1016900077C080E090E0A0E8BFE38B879C87AD87B0
:1016A000BE876B857C858D859E8520E030E04AEF86
:1016B00054E40E941F02DC01CB018F839887A98725
:1016C000BA876F81788589859A8520E030E040E887
:1016D0005FE30E94790388232CF481E090E09E83ED
:1016E0008D833FC06F81788589859A8520E03FEFA3
:1016F0004FE757E40E94190318164CF56B857C855B
:101700008D859E8520E030E040E251E40E941F027A
:10171000DC01CB01BC01CD010E944900DC01CB0101
:101720009E838D830FC088EC90E09C838B838B819C
:101730009C810197F1F79C838B838D819E8101971A
:101740009E838D838D819E81009769F714C06F8180
:10175000788589859A850E944900DC01CB019E83AA
:101760008D838D819E819A83898389819A81019756
:10177000F1F79A8389838F8598890196988B8F8753
:101780002F85388989899A892817390708F481CFE4
:1017900062960FB6F894DEBF0FBECDBFCF91DF913A
:1017A00008950F931F93DF93CF93CDB7DEB766975E
:1017B0000FB6F894DEBF0FBECDBF81E08A8383E011
:1017C00067E041E00E94DF0583E067E040E00E94BF
:1017D000C2060E94220B0E94A3050E94E9090E94F2
:1017E000AD0880E690E00E943B0A81E060E00E9444
:1017F000640A8BE690E00E943B0A0E9456090E9410
:101800007F0A8A81882F90E08C01015010400E944D
:10181000370C282FCE010396FC01E00FF11F208327
:10182000CE0103966A810E94570CCE0103966A810D
:101830000E94B00C89838981813099F48A81843136
:1018400018F48A818F5F8A830E947F0A89E790E07B
:101850000E943B0A84EF91E00E943A0B0E947F0AAB
:10186000D0CF8A810E94F30C81E08A83CACFDF93B4
:10187000CF93CDB7DEB70E94300B282F30E0809198
:10188000CE009091CF00820F931F41969093CF008E
:101890008093CE008091CE009091CF0029E030E07F
:1018A000B9010E94310D8F5FCF91DF910895DF93D1
:1018B000CF93CDB7DEB728970FB6F894DEBF0FBE33
:1018C000CDBF9F838E83688780E00E94B2059C8392
:1018D0008B838B819C819695879588539F4F9A83A4
:1018E00089830E947F0A82E890E00E943B0A1D8261
:1018F00028C081E060E00E94640A8D81282F30E0DA
:101900008E819F81FC01E20FF31F8081882F90E080
:10191000A0E0B0E0BC01CD010E948D0A89819A81CE
:101920000E943A0B81E060E00E94640A89E890E03E
:101930000E943B0A88EC90E00E943A0B8D818F5FF9
:101940008D839D8188859817A0F20E947F0A289632
:101950000FB6F894DEBF0FBECDBFCF91DF910895D3
:10196000DF93CF9300D000D000D0CDB7DEB79C83FB
:101970008B836D838CE890E00E943B0A81E060E0FD
:101980000E94640A1A821FC00E94560989838981B5
:101990008033D0F389818A33B8F789810E94CD09D9
:1019A0008981482F40538A81282F30E08B819C8188
:1019B000FC01E20FF31F8081481711F01E8209C05D
:1019C0008A818F5F8A839A818D819817E8F281E0FE
:1019D0008E838E8126960FB6F894DEBF0FBECDBFE4
:1019E000CF91DF910895DF93CF930F92CDB7DEB7FC
:1019F00089830E947F0A87E990E00E943B0A81E088
:101A000060E00E94640A82EA90E00E943B0A8981B9
:101A1000882F90E00197AA2797FDA095BA2FBC01C7
:101A2000CD010E948D0A83E067E041E00E94C2067A
:101A300088EE93E00E943A0B83E067E040E00E946A
:101A4000C20681E06AE00E94640A89EA90E00E948E
:101A50003B0A0E9456090E947F0A0F90CF91DF91A6
:101A60000895AA1BBB1B51E107C0AA1FBB1FA617E5
:101A7000B70710F0A61BB70B881F991F5A95A9F737
:101A800080959095BC01CD01089597FB092E052600
:101A90000ED057FD04D014D00AD0001C38F4509555
:101AA0004095309521953F4F4F4F5F4F0895F6F782
:101AB00090958095709561957F4F8F4F9F4F0895BA
:101AC000A1E21A2EAA1BBB1BFD010DC0AA1FBB1F42
:101AD000EE1FFF1FA217B307E407F50720F0A21BB4
:101AE000B30BE40BF50B661F771F881F991F1A9421
:101AF00069F760957095809590959B01AC01BD014B
:101B0000CF0108952F923F924F925F926F927F92F2
:101B10008F929F92AF92BF92CF92DF92EF92FF92FD
:101B20000F931F93CF93DF93CDB7DEB7CA1BDB0BA9
:101B30000FB6F894DEBF0FBECDBF09942A8839884E
:101B400048885F846E847D848C849B84AA84B98455
:101B5000C884DF80EE80FD800C811B81AA81B98161
:101B6000CE0FD11D0FB6F894DEBF0FBECDBFED0175
:061B70000895F894FFCF78
:101B760053696D6F6E2047616D65005072657373B2
:101B860020616E79206B657900436F7272656374AC
:101B9600210057617463683A00202000596F7572FE
:101BA600207475726E3A0047616D65204F766572D6
:101BB600210053636F72653A004B65793F00000060
:101BC6000000000000003738392F3435362A31320C
:0E1BD600332D43303D2B0001020304050607AA
:00000001FF
